:020000040800F2
:10000000B0080020290200089931000841270008A3
:10001000953100083B040008B73B000800000000D1
:100020000000000000000000000000000D34000887
:1000300051040008000000002D3200087D35000842
:10004000430200084302000843020008430200087C
:10005000430200084302000843020008430200086C
:10006000430200084302000843020008430200085C
:10007000430200084302000843020008430200084C
:10008000430200084302000843020008430200083C
:10009000430200084302000843020008430200082C
:1000A000430200084302000843020008430200081C
:1000B00025360008430200084302000843020008F6
:1000C00043020008430200084302000843020008FC
:1000D00043020008430200084302000843020008EC
:1000E00053040008430200084302000843020008CA
:1000F00043020008430200084302000843020008CC
:1001000000000000000000000000000043020008A2
:1001100043020008430200084302000843020008AB
:10012000430200084302000843020008430200089B
:100130004302000843020008000000000000000025
:1001400043020008430200084302000800000000C8
:10015000000000000000000000000000000000009F
:1001600000000000000000004302000843020008F5
:100170004302000800000000000000000000000032
:10018000000000004302000800F002F800F03CF814
:100190000AA090E8000C82448344AAF10107DA45E2
:1001A00001D100F031F8AFF2090EBAE80F0013F0F8
:1001B000010F18BFFB1A43F001031847744E0000EB
:1001C000944E0000103A24BF78C878C1FAD852077C
:1001D00024BF30C830C144BF04680C6070470000C1
:1001E0000023002400250026103A28BF78C1FBD840
:1001F000520728BF30C148BF0B6070471FB504F0DD
:100200009EFE1FBD10B510BD00F0E2F81146FFF7CD
:10021000F5FF04F02DF900F000F903B4FFF7F2FF49
:1002200003BC00F003F90000094880470948004773
:10023000FEE7FEE7FEE7FEE7FEE7FEE7FEE7FEE796
:10024000FEE7FEE704480549054A064B70470000F3
:100250001136000889010008B0020020B008002013
:10026000B0040020B004002053EA020C00F06980C2
:100270002DE9F04B4FF00006002B1FBFB3FA83F5BA
:1002800003FA05F424FA05F65E4012BF1643B2FAEB
:1002900082F502FA05F4C5F120051EBF22FA05FC1D
:1002A00044EA0C04203556EA044C4FEA144418BFC3
:1002B000641C4FF000084FF00009904271EB030CF2
:1002C00039D3002919BFB1FA81F701FA07F6B0FA5C
:1002D00080F700FA07F6C7F120071EBF20FA07FCD7
:1002E00046EA0C062037B6FBF4FCA7EB0507103FE7
:1002F00007F01F0BCBF120060CFA0BFB2CFA06F6CD
:1003000044BFB3460026202FA4BF5E464FF0000B2B
:100310005BEA060C08BF4FF0010B19EB0B09ABFBB6
:10032000027C48EB0608C01B06FB02CC0BFB03CC8F
:1003300071EB0C01C1E70B46024641464846BDE859
:10034000F08B13B54FF000004FF00001AFF30080C9
:10035000BDE81C4070474FF0000200B513469446BC
:100360009646203922BFA0E80C50A0E80C50B1F10D
:100370002001BFF4F7AF090728BFA0E80C5048BF21
:100380000CC05DF804EB890028BF40F8042B08BFBF
:10039000704748BF20F8022B11F0804F18BF00F8BB
:1003A000012B704770477047704710B500F008F890
:1003B000006810BD10B5044600F002F8046010BDDE
:1003C000004870474C020020004870474C02002053
:1003D0007546FFF7F9FFAE4605006946534620F023
:1003E0000700854618B020B5FFF72CFFBDE8204078
:1003F0004FF000064FF000074FF000084FF0000BE1
:1004000021F00701AC46ACE8C009ACE8C009ACE893
:10041000C009ACE8C0098D46704710B50446AFF37B
:1004200000802046BDE81040FFF7F7BE01491820C4
:10043000ABBEFEE726000200704700BFFEE70000EB
:1004400002480068401C0149086070470000002015
:10045000704710B54FF4806000F024F84FF400604E
:1004600000F020F810BD72B600BFFEE770B504467C
:1004700000F00CF906462546681C10B104480078C7
:10048000054400BF00F002F9801BA842FAD370BDFA
:100490000801002010B50446B4F5006F01D1FFF744
:1004A000CFFF10BD10B5044604480068204020B1BD
:1004B000024804602046FFF7EDFF10BD1404014020
:1004C00078B503460A460021C5E001268E4015682E
:1004D00005EA0604002C73D0157905F00305012DFB
:1004E00004D0157905F00305022D13D198684E004C
:1004F0000325B540A8434E00D568B5402843986011
:10050000586801258D40A8431579C5F300158D4025
:1005100028435860157905F00305032D09D0D868E4
:100520004E000325B540A8434E009568B5402843CA
:10053000D860157905F00305022D13D1CE0803F11B
:10054000200555F826004D07EE0E0F25B540A843AF
:100550004E07F60E1569B5402843CE0803F1200575
:1005600045F8260018684E000325B540A8431579C4
:1005700005F003054E00B54028431860556805F4A2
:100580004035002D66D000BF364DAD6945F0010500
:10059000344EB5613546AD6905F00105009500BFE3
:1005A00000BF4FEAB6358E0855F826008D072E0F8E
:1005B0000F25B540A843B3F1904F02D1002515E0B7
:1005C00048E0294DAB4201D101250FE0274DAB4258
:1005D00001D102250AE0264DAB4201D1032505E0F9
:1005E000244DAB4201D1042500E005258E07360FCE
:1005F000B5402843204D8E0845F826001F4D286839
:10060000A043556805F4801505B120431B4D2860B3
:100610002D1D2868A043556805F4001505B1204339
:10062000164D2D1D2860154D2D1F2868A0435568B7
:1006300005F4003505B12043104D2D1F28602D1FF6
:100640002868A043556805F4803505B120430B4D5B
:10065000083D2860491C1568CD40002D7FF435AF5A
:1006600078BD000000100240000400480008004867
:10067000000C004800100048080001400804014038
:100680000AB1816100E081627047000001480068A2
:100690007047000000010020024692F84100202827
:1006A0002DD100BF92F84000012801D102207047EF
:1006B000012082F8400000BF242082F84100106829
:1006C000006820F00100136818601068006820F4CA
:1006D0008050136818601068006808431368186039
:1006E0001068006840F0010013681860202082F84C
:1006F000410000BF002082F8400000BFD7E7022081
:10070000D5E710B502460B4692F8410020282AD1C1
:1007100000BF92F84000012801D1022010BD012045
:1007200082F8400000BF242082F841001068006871
:1007300020F00100146820601068016821F47061E5
:1007400041EA0321106801601068006840F0010070
:1007500014682060202082F8410000BF002082F849
:10076000400000BFDAE70220D8E7000010B50446D9
:100770000CB9012010BD94F8410028B9002084F87C
:100780004000204600F0FAF9242084F84100206857
:10079000006820F0010021680860606820F0706047
:1007A000216808612068806820F400402168886022
:1007B000E068012805D1A06840F400402168886005
:1007C00004E0A06840F4044021688860E0680228E2
:1007D00006D12068406840F400602168486005E068
:1007E0002068406820F40060216848602068406804
:1007F00013490843216848602068C06820F400401D
:100800002168C860D4E904010843A16940EA0120D5
:100810002168C860D4E9070108432168086020689E
:10082000006840F00100216808600020606420201A
:1008300084F841000020206384F8420000BF99E75B
:10084000008000022DE9FC5F0446894692469B46E3
:10085000DDE90C780E9E94F8410020287ED117B176
:10086000B8F1000F05D14FF4007060640120BDE8BD
:10087000FC9F00BF94F84000012801D10220F6E758
:10088000012084F8400000BFFFF700FF0546192350
:100890000122D1032046009502F098F808B101200A
:1008A000E5E7222084F84100402084F8420000203F
:1008B00060646762A4F82A8060635B4652464946DA
:1008C0002046CDE9006501F0E9FF30B100BF00200E
:1008D00084F8400000BF0120C9E7608DFF280CD9D3
:1008E000012020853D48009094F828204FF0807327
:1008F0004946204602F04EF80BE0608D20853748CF
:10090000009094F828204FF000734946204602F0EA
:1009100041F800BF3346002204212046009502F032
:1009200055F808B10120A2E72068406A616A0870A2
:10093000606A401C6062208D401E2085608D401ED4
:100940006085608D48B3208D38BB334600228021FE
:100950002046009502F03AF818B100E03CE0012092
:1009600085E7608DFF280CD90120208500200090AC
:1009700094F828204FF080734946204602F00AF888
:100980000BE0608D20850020009094F828204FF027
:1009900000734946204601F0FDFF608D0028B9D163
:1009A0002A463146204602F052F808B101205EE79F
:1009B00020202168C86120684068094908402168F2
:1009C0004860202084F84100002084F8420000BFE5
:1009D00084F8400000BF4AE7022048E70024008076
:1009E00000E800FE2DE9FC5F0446894692469B46DE
:1009F000DDE90C780E9E94F8410020287DD117B1D6
:100A0000B8F1000F05D14FF4007060640120BDE81B
:100A1000FC9F00BF94F84000012801D10220F6E7B6
:100A2000012084F8400000BFFFF730FE054619237F
:100A30000122D1032046009501F0C8FF08B1012032
:100A4000E5E7212084F84100402084F8420000209E
:100A500060646762A4F82A8060635B465246494638
:100A60002046CDE9006501F057FF30B100BF0020FE
:100A700084F8400000BF0120C9E7608DFF280CD931
:100A8000FF2020850020009094F828204FF08073EC
:100A90004946204601F07EFF0BE0608D2085002056
:100AA000009094F828204FF000734946204601F04A
:100AB00071FF00BF2A463146204601F0F8FF08B119
:100AC0000120A4E7606A007821688862606A401C9F
:100AD0006062608D401E6085208D401E2085608D87
:100AE00040B3208D30BB3346002280212046009544
:100AF00001F06CFF10B1012089E73AE0608DFF281A
:100B00000CD9FF2020850020009094F828204FF079
:100B100080734946204601F03DFF0BE0608D208543
:100B20000020009094F828204FF00073494620469A
:100B300001F030FF608D0028BCD12A4631462046A6
:100B400001F085FF08B1012061E720202168C8611C
:100B5000206840680849084021684860202084F8DF
:100B60004100002084F8420000BF84F8400000BF2C
:100B70004DE702204BE7000000E800FE10B586B00C
:100B80000446142101A8FFF7E6FB264920688842A5
:100B900046D100BF2448406940F4003022494861F2
:100BA0000846406900F40030009000BF00BF00BF5D
:100BB0000846406940F4802048610846406900F4D6
:100BC0008020009000BF00BF4FF400400190122031
:100BD000029001200390032004900420059001A9B5
:100BE0004FF09040FFF76CFC8020019012200290A3
:100BF00001200390032004900420059001A90B48D4
:100C0000FFF75EFC00BF0848C06940F400100649C9
:100C1000C8610846C06900F40010009000BF00BF22
:100C200006B010BD0054004000100240000400480F
:100C3000034800680349097808440149086070477F
:100C4000000100200801002010B50848006840F0AD
:100C5000100006490860032000F09EF80F2000F005
:100C600007F800F02BF8002010BD00000020024023
:100C700070B504460E4800784FF47A71B1FBF0F07D
:100C80000C490968B1FBF0F5284601F0B5F808B148
:100C9000012070BD102C07D200222146501E00F00A
:100CA0003DF80548046001E00120F2E70020F0E78C
:100CB000080100200C0100200401002008B500BF3D
:100CC0000D48806940F001000B4988610846806941
:100CD00000F00100009000BF00BF00BF0846C069DF
:100CE00040F08050C8610846C06900F08050009014
:100CF00000BF00BF08BD00000010024001460846CA
:100D0000002809DB00F01F0301229A4043099B00E1
:100D100003F1E023C3F8002100BF70472DE9F05F25
:100D200080460D461646002702F080FF07463946EA
:100D30002A46334601F00700C0F1070ABAF1040F52
:100D400002D94FF0040A01E0C0F1070AD14600F1D0
:100D5000040ABAF1070F02D24FF0000A01E0A0F135
:100D6000030AD4464FF0010A0AFA09FAAAF1010A65
:100D70000AEA020A0AFA0CFA4FF0010B0BFA0CFB12
:100D8000ABF1010B0BEA030B4AEA0B042146404688
:100D900002F054FFBDE8F09F00BF00F00702064BD1
:100DA00019684FF6FF031940044B0B4343EA022135
:100DB000014B196000BF70470CED00E00000FA0520
:100DC000F8B50446002600250027206800F480308E
:100DD000B0F5803F73D1B048C06900F0805070B961
:100DE00000BFAD48C06940F08050AB49C8610846BB
:100DF000C06900F08050009000BF00BF0127A748E5
:100E0000006800F48070B0B9A448006840F48070B5
:100E1000A2490860FFF73AFC064606E0FFF736FCF9
:100E2000801B642801D90320F8BD9C48006800F4A9
:100E300080700028F2D09848006A00F44075002DB8
:100E40006BD0A08800F44070A84266D09248006A37
:100E500020F440750121080490FAA0F0B0FA80F067
:100E60008F4A02EB8000C0F800140020090491FAB8
:100E7000A1F1B1FA81F102EB8101C1F800048648C9
:100E8000056205F00100B8B3FFF700FC064608E074
:100E9000FFF7FCFB801B41F28831884201D9032017
:100EA000C2E74020022191FAA1F1B1FA81F1084391
:100EB0000121B1EB601F03D1774800681FE03BE0E0
:100EC0004020022191FAA1F1B1FA81F108430221F7
:100ED000B1EB601F02D17048006A10E0402002218F
:100EE00091FAA1F1B1FA81F108430421B1EB601F3D
:100EF00003D16948406802E00FE06748406A40213A
:100F0000022292FAA2F2B2FA82F2114301F01F0217
:100F10000121914008400028BAD05F48006A20F4BF
:100F20004070616808435C490862012F04D108469B
:100F3000C06920F08050C861207800F0010038B10D
:100F40005548006B20F00300A1680843524908632C
:100F5000207800F00200022807D14F48006B20F4EF
:100F60004030E16808434C490863207800F00400F1
:100F7000042807D14848006B20F440202169084329
:100F800045490863207800F02000202807D1424816
:100F9000006B20F01000E16908433F4908632068B6
:100FA00000F40030B0F5003F07D13B48406820F422
:100FB0008000A16B084338494860207800F0400069
:100FC000402807D13448006B20F02000216A0843F4
:100FD00031490863207800F00800082807D12E481E
:100FE000006B20F44010616908432B4908632078A6
:100FF00000F01000102807D12748006B20F44000B3
:10100000A169084324490863208800F40070B0F502
:10101000007F07D12048406820F40000E16A0843BF
:101020001D494860207800F08000802807D11A48C8
:10103000C06A20F4F870616A08431749C8622088C2
:1010400000F48070B0F5807F07D11348C06A20F4A7
:101050007850A16A08431049C862208800F4805083
:10106000B0F5805F07D10C48006B20F48070216BD5
:10107000084309490863208800F40050B0F5005F78
:1010800007D10548006B20F40070616B08430249EA
:1010900008630020C8E60000001002400070004015
:1010A0000000424270B504460D4600260CB90120EE
:1010B00070BDA248006800F00700A8420ED29F4809
:1010C000006820F0070028439C4908600846006833
:1010D00000F00700A84201D00120E9E7207800F0E5
:1010E0000200022807D19648406820F0F000A1686D
:1010F000084393494860207800F0010000287CD024
:10110000606801283BD12020010391FAA1F1B1FAD6
:1011100081F108430121B1EB601F02D188480068CA
:101120001DE02020010391FAA1F1B1FA81F10843F9
:101130000221B1EB601F02D18148006A0FE020203C
:10114000010391FAA1F1B1FA81F108430421B1EB55
:10115000601F02D17A48406801E07948406A202146
:101160000A0392FAA2F2B2FA82F2114301F01F02CC
:1011700001219140084000287CD1012098E7606857
:1011800002283BD12020010591FAA1F1B1FA81F1A9
:1011900008430121B1EB601F02D1694800681DE0DE
:1011A0002020010591FAA1F1B1FA81F10843022151
:1011B000B1EB601F02D16248006A0FE020200105F8
:1011C00091FAA1F1B1FA81F108430421B1EB601F5A
:1011D00002D15B48406801E05948406A20210A0575
:1011E00092FAA2F2B2FA82F2114301F01F02012137
:1011F00091400840E8BB01205AE758E02020022136
:1012000091FAA1F1B1FA81F108430121B1EB601F1C
:1012100002D14B4800681DE02020022191FAA1F183
:10122000B1FA81F108430221B1EB601F02D14448B9
:10123000006A0FE02020022191FAA1F1B1FA81F1B8
:1012400008430421B1EB601F02D13D48406801E032
:101250003B48406A2021022292FAA2F2B2FA82F2BC
:10126000114301F01F0201219140084008B90120FB
:101270001EE7FFE73248406820F00300616808433A
:101280002F494860FFF702FA064608E0FFF7FEF92B
:10129000801B41F28831884201D9032008E72848A1
:1012A000406800F00C006168B0EB810FEED123487C
:1012B000006800F00700A8420ED92048006820F01E
:1012C000070028431D4908600846006800F0070031
:1012D000A84201D00120EBE6207800F004000428A9
:1012E00007D11748406820F4E060E16808431449DA
:1012F0004860207800F00800082808D110484068AD
:1013000020F46050216940EAC1000D49486000F0B6
:101310001FF80B49496801F0F001F02292FAA2F29D
:10132000B2FA82F2D140074A515CC84006490860CF
:1013300006480068FFF79CFC0020B9E60020024048
:1013400000100240724F00080C0100200401002030
:101350002DE9F0410024002500270026A04618486A
:10136000446804F00C0018B3042802D008281ED1E9
:1013700002E0DFF850801EE01348C4F38341465C6E
:101380000F48C06A00F00F0010490D5C04F4803073
:1013900040B12A4600230B481946FEF765FFA0FB23
:1013A000067102E00A48A0FB0671B84603E000BFE0
:1013B000DFF8108000BF00BF4046BDE8F0810000AC
:1013C0000010024000127A00524F0008624F0008DD
:1013D00000093D00F8B504460CB90120F8BD20789D
:1013E00000F0010000287BD0FA48406800F00C00B3
:1013F00004280CD0F748406800F00C00082845D1BC
:10140000F448406800F48030B0F5803F3ED12020A1
:10141000010391FAA1F1B1FA81F108430121B1EB85
:10142000601F02D1EB4800681DE02020010391FA03
:10143000A1F1B1FA81F108430221B1EB601F02D1A1
:10144000E448006A0FE02020010391FAA1F1B1FA0B
:1014500081F108430421B1EB601F02D1DD484068EF
:1014600001E0DC48406A20210A0392FAA2F2B2FAB3
:1014700082F2114301F01F0201219140084000282F
:10148000B1D0606800282BD10120A7E700BF6068B9
:10149000B0F5803F06D1CF48006840F48030CD4998
:1014A000086029E0606858B9CA48006820F48030B4
:1014B000C84908600846006820F4802008601BE0E6
:1014C0006068B0F5A02F0CD1C248006840F48020BD
:1014D000C04908600846006840F4803008600BE0AE
:1014E000A1E0BC48006820F48030BA490860084692
:1014F000006820F48020086000BFB648C06A20F071
:101500000F00A1680843B349C8626068A0B3FFF741
:10151000BDF8054606E0FFF7B9F8401B642801D97D
:1015200003205BE72020010391FAA1F1B1FA81F1D8
:1015300008430121B1EB601F02D1A64800681EE0FC
:101540002020010391FAA1F1B1FA81F108430221AF
:10155000B1EB601F02D19F48006A10E02020010318
:1015600091FAA1F1B1FA81F108430421B1EB601FB6
:1015700003D19848406802E010E09648406A202174
:101580000A0392FAA2F2B2FA82F2114301F01F02A8
:101590000121914008400028BDD044E0FFF776F8D3
:1015A000054606E0FFF772F8401B642801D90320C6
:1015B00014E72020010391FAA1F1B1FA81F1084367
:1015C0000121B1EB601F02D1824800681DE020209C
:1015D000010391FAA1F1B1FA81F108430221B1EBC3
:1015E000601F02D17B48006A0FE02020010391FABE
:1015F000A1F1B1FA81F108430421B1EB601F02D1DE
:101600007448406801E07348406A20210A0392FA56
:10161000A2F2B2FA82F2114301F01F0201219140BD
:1016200008400028BED1207800F0020002285CD1DA
:101630006848406800F00C0050B16648406800F00F
:101640000C00082852D16348406800F48030E8BBA1
:101650002020022191FAA1F1B1FA81F10843012180
:10166000B1EB601F02D15B4800681DE02020022121
:1016700091FAA1F1B1FA81F108430221B1EB601FA7
:1016800002D15448006A0FE02020022191FAA1F112
:10169000B1FA81F108430421B1EB601F02D14D483A
:1016A000406801E04B48406A2021022292FAA2F2EF
:1016B000B2FA82F2114301F01F0201219140084069
:1016C00028B12069012802D0012087E60EE04148B8
:1016D000006820F0F800F82292FAA2F2B2FA82F240
:1016E0006169914008433B490860B1E0206970B3EB
:1016F000012191FAA1F0B0FA80F0374A42F82010A7
:10170000FEF7C4FF054606E0FEF7C0FF401B0228B7
:1017100001D9032062E62020022191FAA1F1B1FA59
:1017200081F108430121B1EB601F02D12948006813
:101730001EE02020022191FAA1F1B1FA81F10843C3
:101740000221B1EB601F03D12248006A10E02CE0B7
:101750002020022191FAA1F1B1FA81F1084304217C
:10176000B1EB601F02D11B48406801E01948406A94
:101770002021022292FAA2F2B2FA82F2114301F07F
:101780001F020121914008400028BDD01148006887
:1017900020F0F800F82292FAA2F2B2FA82F261691D
:1017A000914008430B49086052E00020012191FA62
:1017B000A1F1B1FA81F1084A42F82100FEF766FF73
:1017C00005460BE0FEF762FF401B022806D9032006
:1017D00004E60000001002400000424220200221E6
:1017E00091FAA1F1B1FA81F108430121B1EB601F37
:1017F00002D1FB4800681DE02020022191FAA1F1EE
:10180000B1FA81F108430221B1EB601F02D1F44823
:10181000006A0FE02020022191FAA1F1B1FA81F1D2
:1018200008430421B1EB601F02D1ED48406801E09C
:10183000EB48406A2021022292FAA2F2B2FA82F226
:10184000114301F01F020121914008400028B9D145
:10185000207800F00800082851D1A06980B3012148
:1018600091FAA1F0B0FA80F0DE4A02EB8000C0F8F5
:101870008014FEF70BFF054606E0FEF707FF401B4E
:10188000022801D90320A9E56020022191FAA1F1E3
:10189000B1FA81F108430121B1EB601F02D1D048B8
:1018A00000681EE06020022191FAA1F1B1FA81F1F5
:1018B00008430221B1EB601F03D1C948006A10E060
:1018C0001EE06020022191FAA1F1B1FA81F10843F2
:1018D0000421B1EB601F02D1C148406801E0C0485B
:1018E000406A6021022292FAA2F2B2FA82F2114315
:1018F00001F01F020121914008400028BDD04FE0B7
:101900000020012191FAA1F1B1FA81F1B54A02EB6F
:101910008101C1F88004FEF7B9FE054606E0FEF736
:10192000B5FE401B022801D9032057E560200221A3
:1019300091FAA1F1B1FA81F108430121B1EB601FE5
:1019400002D1A74800681DE06020022191FAA1F1B0
:10195000B1FA81F108430221B1EB601F02D1A04826
:10196000006A0FE06020022191FAA1F1B1FA81F141
:1019700008430421B1EB601F02D19948406801E09F
:101980009748406A6021022292FAA2F2B2FA82F2E9
:10199000114301F01F020121914008400028BED1EF
:1019A000207800F00400042873D100278C48C06917
:1019B00000F0805070B900BF8948C06940F0805085
:1019C0008749C8610846C06900F08050009000BF98
:1019D00000BF01278448006800F48070B0B98248D5
:1019E000006840F4807080490860FEF74FFE0546AD
:1019F00006E0FEF74BFE401B642801D90320EDE40E
:101A00007948006800F480700028F2D000BFE068D8
:101A1000012806D17248006A40F00100704908624E
:101A200027E0E06858B96E48006A20F001006C4970
:101A300008620846006A20F00400086219E0E068C5
:101A400005280BD16648006A40F00400644908622A
:101A50000846006A40F0010008620AE06048006A37
:101A600020F001005E4908620846006A20F0040088
:101A7000086200BFE068B8B3FEF708FE054609E05B
:101A8000FEF704FE401B41F28831884202D9032050
:101A9000A4E48BE04020022191FAA1F1B1FA81F196
:101AA00008430121B1EB601F02D14D4800681EE0E0
:101AB0004020022191FAA1F1B1FA81F108430221FB
:101AC000B1EB601F02D14648006A10E040200221BD
:101AD00091FAA1F1B1FA81F108430421B1EB601F41
:101AE00003D13F48406802E010E03D48406A402191
:101AF000022292FAA2F2B2FA82F2114301F01F021C
:101B00000121914008400028BAD046E0FEF7BEFD12
:101B1000054608E0FEF7BAFD401B41F288318842D5
:101B200001D903205AE44020022191FAA1F1B1FA2F
:101B300081F108430121B1EB601F02D12848006800
:101B40001DE04020022191FAA1F1B1FA81F1084390
:101B50000221B1EB601F02D12148006A0FE0402052
:101B6000022191FAA1F1B1FA81F108430421B1EB0C
:101B7000601F02D11A48406801E01948406A4021BC
:101B8000022292FAA2F2B2FA82F2114301F01F028B
:101B90000121914008400028BCD1012F05D11048F7
:101BA000C06920F080500E49C86100BFE06900287C
:101BB00074D00B48406800F00C0008286FD0E06932
:101BC00002286DD100204FF0807191FAA1F1B1FA95
:101BD00081F1044A42F82100FEF758FD05460CE069
:101BE000001002400000424200700040FEF74EFD2F
:101BF000401B022801D9032047E42020010591FA67
:101C0000A1F1B1FA81F108430121B1EB601F02D1CA
:101C1000774800681DE02020010591FAA1F1B1FA92
:101C200081F108430221B1EB601F02D17048006AC4
:101C30000FE02020010591FAA1F1B1FA81F10843EA
:101C40000421B1EB601F02D16948406801E0684897
:101C5000406A20210A0592FAA2F2B2FA82F21143F6
:101C600001F01F020121914008400028BED1D4E9B3
:101C7000081008435E49496821F4741108435C491F
:101C800048600120010691FAA1F1B1FA81F1594AA7
:101C900042F82100FEF7FAFC054609E0A5E092E0D3
:101CA00041E0FEF7F3FC401B022801D9032038E491
:101CB0002020010591FAA1F1B1FA81F10843012137
:101CC000B1EB601F02D14A4800681DE020200105E9
:101CD00091FAA1F1B1FA81F108430221B1EB601F41
:101CE00002D14348006A0FE02020010591FAA1F1DA
:101CF000B1FA81F108430421B1EB601F02D13C48E5
:101D0000406801E03A48406A20210A0592FAA2F2AE
:101D1000B2FA82F2114301F01F0201219140084002
:101D20000028BED061E000204FF0807191FAA1F14F
:101D3000B1FA81F12F4A42F82100FEF7A7FC0546CF
:101D400006E0FEF7A3FC401B022801D903202FE484
:101D50002020010591FAA1F1B1FA81F10843012196
:101D6000B1EB601F02D1224800681DE02020010570
:101D700091FAA1F1B1FA81F108430221B1EB601FA0
:101D800002D11B48006A0FE02020010591FAA1F161
:101D9000B1FA81F108430421B1EB601F02D114486C
:101DA000406801E01248406A20210A0592FAA2F236
:101DB000B2FA82F2114301F01F0201219140084062
:101DC0000028BED111E0E069012800D17DE4084877
:101DD000466806F48031206A814204D106F470110D
:101DE000606A814201D001206FE400206DE40000B0
:101DF000001002400000424270B504462546681EAD
:101E0000B0F1807F01D301200FE0681E4FF0E02188
:101E100048610F214FF0FF3001F010FF00204FF01C
:101E2000E021886107200861002070BD704770477D
:101E30007047000010B50346002200BF93F83C0035
:101E4000012801D1022010BD012083F83C0000BF11
:101E500022F0FF00CC6840EA040222F440708C6853
:101E600040EA040222F480604C6840EA040222F452
:101E700000600C6840EA040222F480500C6940EAD9
:101E8000040222F400504C6940EA040222F480402B
:101E90008C6A40EA040222F470200C8B40EA04426F
:101EA0000F4C1868A04203D00E4C1868A0420ED107
:101EB00022F470008C8C40EA045222F08070CC69CD
:101EC00040EA040222F000700C6A40EA040218683A
:101ED000426400BF002083F83C0000BF00BFB2E7AF
:101EE000002C01400034014030B502460B4600BFD3
:101EF00092F83C00012801D1022030BD012082F877
:101F00003C0000BF022082F83D0010684168106864
:101F100084681D4D1068A84203D01C4D1068A8426B
:101F200003D121F470015868014321F07001186851
:101F3000014310684160144D1068A84213D0106826
:101F4000B0F1804F0FD0124D1068A8420BD0114D48
:101F50001068A84207D00D4D1068A84203D00E4D5E
:101F60001068A84205D124F08004986804431068E2
:101F70008460012082F83D0000BF002082F83C0010
:101F800000BF00BFB9E70000002C01400034014051
:101F900000040040000800400040014010B5044625
:101FA0000CB9012010BD94F83D0028B9002084F838
:101FB0003C00204600F02AF8022084F83D00211D54
:101FC000206801F091FB012084F8480000BF84F8EC
:101FD0003E0001213F20015540200155412001557F
:101FE000422001554320015500BF00BF012084F865
:101FF000440045200155462001554720015500BFAA
:10200000012084F83D000020CCE7000038B50446EC
:102010001649206888420DD100BF1548806940F4F8
:102020000060134988610846806900F400600090F0
:1020300000BF19E02068B0F1804F15D100BF0C48F7
:10204000C06940F001000A49C8610846C06900F053
:102050000100009000BF00BF002211461C20FEF7C7
:102060005DFE1C20FEF74AFE38BD0000002C01403A
:1020700000100240014691F83D00012801D00120E6
:102080007047022081F83D000868C06840F00100F8
:102090000B68D860184B0868984213D00868B0F1F4
:1020A000804F0FD0154B086898420BD0144B08682E
:1020B000984207D0134B0868984203D0124B086827
:1020C000984210D108688068104B00EA0302062A83
:1020D0000FD0B2F5803F0CD00868006840F00100D6
:1020E0000B68186005E00868006840F001000B68A4
:1020F00018600020C4E70000002C014000040040EC
:102100000008004000340140004001400700010089
:102110002DE9F04104460D46002700BF94F83C002D
:10212000012802D10220BDE8F081012084F83C00A2
:1021300000BF022084F83D002068866837480640CA
:1021400026F47F46206886602868502833D00CDC4F
:10215000202850D004DC00284BD0102851D149E071
:10216000302849D040284CD139E060282DD0702843
:1021700007D0B0F5805F03D0B0F5005F41D10DE02E
:1021800041E0D5E902136A68206801F024FB206869
:10219000866846F077062068866034E0D5E9021349
:1021A0006A68206801F017FB2068806840F480406E
:1021B0002168886027E0EA686968206801F0D4FC3B
:1021C0005021206801F012FB1DE0EA686968206870
:1021D00001F0DDFC6021206801F008FB13E0EA68F3
:1021E0006968206801F0C0FC4021206801F0FEFA17
:1021F00009E000BF00BF00BF2968206801F0F6FABF
:1022000001E0012700BF00BF012084F83D0000BFAE
:10221000002084F83C0000BF384684E788FFFEFFBA
:10222000704770B504462068C5682068066906F0E6
:102230000200022819D105F00200022815D1401F22
:1022400021680861012020772068806900F0030080
:1022500018B12046FFF7E4FF05E0204600F0D6F86D
:10226000204600F0C4F90020207706F0040004287E
:1022700019D105F00400042815D1C0432168086174
:10228000022020772068806900F4407018B1204651
:10229000FFF7C6FF05E0204600F0B8F8204600F042
:1022A000A6F90020207706F00800082819D105F0CB
:1022B0000800082815D1C043216808610420207750
:1022C0002068C06900F0030018B12046FFF7A8FF9E
:1022D00005E0204600F09AF8204600F088F900203A
:1022E000207706F01000102819D105F010001028F2
:1022F00015D1C04321680861082020772068C06993
:1023000000F4407018B12046FFF78AFF05E0204630
:1023100000F07CF8204600F06AF90020207706F0F3
:10232000010048B105F0010030B16FF001002168F3
:102330000861204600F002FA06F08000802809D1EA
:1023400005F08000802805D1C0432168086120463F
:10235000FFF76DFD06F48070B0F5807F0AD105F0BF
:102360008000802806D16FF48070216808612046C3
:10237000FFF75CFD06F04000402809D105F0400061
:10238000402805D1C04321680861204600F0D7F9F4
:1023900006F02000202809D105F02000202805D1D2
:1023A000C043216808612046FFF742FD70BD000070
:1023B00010B586B00446142101A8FDF7CCFF1149E1
:1023C000206888421BD100BF0F48406940F40030AC
:1023D0000D4948610846406900F40030009000BF94
:1023E00000BF881501900220029000200390049005
:1023F0000620059001A94FF09040FEF761F806B065
:1024000010BD0000002C01400010024070472DE973
:10241000F04104460D461646002700BF94F83C00E4
:10242000012802D10220BDE8F081012084F83C009F
:1024300000BF0C2E51D005DC4EB1042E1ED0082E4C
:102440007AD133E0102E60D0142EF9D175E02946F0
:10245000206801F0D5F92068806940F00800216803
:1024600088612068806920F0040021688861206804
:102470008069296908432168886178E029462068D5
:1024800001F014FA2068806940F4006021688861D6
:102490002068806920F480602168886120688069F4
:1024A000296940EA01202168886160E029462068A6
:1024B00001F056FA2068C06940F008002168C86140
:1024C0002068C06920F004002168C8612068C069E4
:1024D000296908432168C86149E02946206801F05C
:1024E00099FA2068C06940F400602168C8612068DA
:1024F000C06920F480602168C8612068C0692969CA
:1025000040EA01202168C86131E02946206801F0D5
:10251000BBFA2068406D40F00800216848652068DB
:10252000406D20F00400216848652068406D2969ED
:102530000843216848651AE017E02946206801F041
:10254000DBFA2068406D40F400602168486520682F
:10255000406D20F48060216848652068406D2969DD
:1025600040EA01202168486501E0012700BF00BF63
:1025700000BF002084F83C0000BF384653E710B588
:1025800004460CB9012010BD94F83D0028B9002084
:1025900084F83C00204600F029F8022084F83D0031
:1025A000211D206801F0A0F8012084F8480000BF38
:1025B00084F83E0001213F20015540200155412073
:1025C0000155422001554320015500BF00BF0120A5
:1025D00084F8440045200155462001554720015507
:1025E00000BF012084F83D000020CCE77047704711
:1025F00070B504460D4615B994F83E0015E0042D5B
:1026000002D13F20005D10E0082D02D14020005D86
:102610000BE00C2D02D14120005D06E0102D02D10F
:102620004220005D01E04320005D012801D001202F
:1026300070BD1DB9022084F83E001AE0042D03D1BC
:1026400002213F20015514E0082D03D10221402032
:1026500001550EE00C2D03D102214120015508E067
:10266000102D03D102214220015502E00221432016
:10267000015501222946206801F09CF8274920686D
:1026800088420FD02649206888420BD0254920680F
:10269000884207D024492068884203D02349206813
:1026A000884201D1012000E0002028B12068406C60
:1026B00040F400402168486418492068884213D0DB
:1026C0002068B0F1804F0FD01949206888420BD0A4
:1026D00018492068884207D011492068884203D0F1
:1026E00010492068884210D120688068124900EAA9
:1026F0000106062E0FD0B6F5803F0CD0206800688A
:1027000040F001002168086005E02068006840F0A2
:1027100001002168086000208AE70000002C0140C9
:1027200000340140004001400044014000480140A5
:102730000004004000080040070001007047704797
:1027400000BFFEE701688969C1F3400111B10021B2
:10275000026891620168896901F0010129B9016883
:10276000896941F001010268916170472DE9F74FD5
:1027700004460E4600272068D0F818800025DDF8B2
:10278000089008F01000102845D12168C86134E095
:10279000701C90B3FDF77AFFA0EB0900B04200D89F
:1027A0005EBB2068406800F4804A94F842B020681C
:1027B0008069C0F3C03070B1BAF5804F0BD0BBF167
:1027C000200F08D02068406840F4804021684860AD
:1027D000FDF75CFF814609E0FDF758FFA0EB09001B
:1027E000192803D945F02005012705E020688069F4
:1027F000C0F340100028EFD000BF20688069C0F30C
:10280000401008B9002FC3D017B920202168C86133
:1028100045F0040501272068D0F8188008F480707E
:10282000B0F5807F06D145F001054FF48070216836
:10283000C861012708F48060B0F5806F06D145F0CB
:1028400008054FF480602168C861012708F4007012
:10285000B0F5007F06D145F002054FF40070216805
:10286000C8610127AFB12046FFF76CFF20684068C0
:102870000949084021684860606C28436064202052
:1028800084F84100002084F8420000BF84F8400032
:1028900000BF3846BDE8FE8F00E800FE2DE9F84392
:1028A0000446894615461E46DDE908781948F2B205
:1028B000002349460090204600F06CF84246394615
:1028C000204600F0F4F810B10120BDE8F883012E95
:1028D00003D1E8B2216888620EE0C5F307202168C1
:1028E000886242463946204600F0E1F808B10120EE
:1028F000EBE7E8B2216888623B460022402120468F
:10290000CDF8008000F062F808B10120DDE700207A
:10291000DBE70000002000802DE9F84304468946EB
:1029200015461E46DDE908781948F2B2C302494649
:102930000090204600F02EF842463946204600F02E
:10294000B6F810B10120BDE8F883012E03D1E8B23A
:10295000216888620EE0C5F307202168886242463C
:102960003946204600F0A3F808B10120EBE7E8B2B1
:10297000216888623B46002280212046CDF80080F5
:1029800000F024F808B10120DDE70020DBE70000BB
:1029900000200080F0B5059CC1F309064FF47F07C5
:1029A00007EA02473E431E43264326F000450668D9
:1029B00076684FF4806707EA545767F0FC2747F4BE
:1029C000C047BE432E4307687E60F0BD2DE9F0414D
:1029D00004460D4617461E46DDF818802BE0424699
:1029E00031462046FFF7C2FE10B10120BDE8F0815C
:1029F000701C00B3FDF74AFEA0EB0800B04200D8FF
:102A0000CEB9206880692840A84201D1012000E0A9
:102A10000020B8420FD1606C40F02000606420209C
:102A200084F84100002084F8420000BF84F8400090
:102A300000BF0120DAE7206880692840A84201D160
:102A4000012000E00020B842C9D00020CEE770B5D8
:102A500004460D46164622E0324629462046FFF738
:102A600085FE08B1012070BDFDF710FE801BA84255
:102A700000D8A5B920688069C0F3401078B9606CAF
:102A800040F020006064202084F84100002084F899
:102A9000420000BF84F8400000BF0120E3E7206847
:102AA0008069C0F340100028D6D00020DBE770B565
:102AB00004460D46164624E0324629462046FFF7D6
:102AC00055FE08B1012070BD681CD0B1FDF7DEFDD8
:102AD000801BA84200D8A5B920688069C0F34000D7
:102AE00078B9606C40F020006064202084F84100D8
:102AF000002084F8420000BF84F8400000BF01209D
:102B0000E1E720688069C0F340000028D4D00020AD
:102B1000D9E700008F4890ED001A70EEC11A8E4878
:102B200090ED002A8D4890ED001A01EE821A80ED9A
:102B3000001A90ED001A30EE411A894880ED001A13
:102B4000884890ED011A8848D0ED001A31EEC11A7C
:102B50008448D0ED021A31EE611A844880ED001AE3
:102B6000804890ED031AB1EE411A804880ED011AB9
:102B70007C4890ED031AB1EE411A7C4880ED021AB0
:102B80007B4890ED001A794880ED031A754890ED66
:102B9000001A7648D0ED001A6F4890ED002A01EE39
:102BA000821A704880ED001A90ED011A6F48D0ED3E
:102BB000011A694890ED002A01EE821A694880EDF9
:102BC000011A90ED021A6948D0ED021A624890EDA0
:102BD000002A01EE821A634880ED021A90ED031A72
:102BE0006248D0ED031A5C4890ED002A01EE821A8B
:102BF0005C4880ED031AD0ED001A5E48007801EEC3
:102C0000100AB8EE411A21EE811A5B4880ED001AD5
:102C10005448D0ED021A5748007801EE100AB8EE79
:102C2000411A21EE811A554880ED001A544890ED62
:102C3000001A5048007801EE900AF8EE611A4E48EA
:102C400090ED002A01EE821A4E4880ED001A4A48A3
:102C500090ED001A4B48D0ED001A81EE212A4A4827
:102C600080ED002A454890ED001A4648D0ED001A44
:102C700081EE212A454880ED002A3F4890ED001A58
:102C8000434880ED001A3748D0ED011A39480078E2
:102C900001EE100AB8EE411A21EE811A3D4880ED8E
:102CA000001A304890ED001A3748D0ED001A384825
:102CB00090ED002A01EEC21A2A4880ED001A90ED2C
:102CC000011A3148D0ED001A324890ED002A01EE89
:102CD000C21A244880ED011A90ED021A2B48D0ED5B
:102CE000001A2B4890ED002A01EEC21A1D4880ED13
:102CF000021A90ED031A2548D0ED001A254890EDF0
:102D0000002A01EEC21A174880ED031A114890ED0F
:102D1000001A1E48D0ED001A114890ED002A01EE6D
:102D2000821A0C4880ED001A90ED001A30EEC11A9C
:102D3000194880ED001A094890ED001A1248D0EDAC
:102D4000001A074890ED002A01EE821A034880ED30
:102D5000001A70475000002034000020540000206A
:102D60004C00002060000020240000201001002002
:102D70002800002030000020700000207400002097
:102D80002C000020780000203C00002040000020A3
:102D900044000020480000205C00002010B586B0F0
:102DA00004466420012105AA0B46CDE900210290CA
:102DB0007522D0212046FDF745FD9DF814006828B6
:102DC0003AD1002004906420012104AA0B46CDE9E9
:102DD000002102906B22D0212046FDF703FE072040
:102DE00004906420012104AA0B46CDE90021029041
:102DF0001922D0212046FDF7F5FD00200490642023
:102E0000012104AA0B46CDE9002102901B22D0210A
:102E10002046FDF7E7FD002004906420012104AA6C
:102E20000B46CDE9002102901C22D0210348FDF77A
:102E3000D9FD002006B010BD0120FBE76001002095
:102E400030B585B005460C464FF47A70062103AACA
:102E50000123CDE9002102903B22D0210E48FDF74D
:102E6000F1FC9DF80D009DF80C1040EA012000B225
:102E700020849DF80F009DF80E1040EA012000B25A
:102E800060849DF811009DF8101040EA012000B206
:102E9000A08405B030BD00006001002030B585B0D1
:102EA00005460C466420062103AA0123CDE9002132
:102EB00002904322D0212846FDF7C4FC9DF80D0066
:102EC0009DF80C1040EA012000B220809DF80F0010
:102ED0009DF80E1040EA012000B260809DF81100BC
:102EE0009DF8101040EA012000B2A08005B030BD6E
:102EF00000B587B0142102A8FDF72DFA00BF3748AE
:102F0000406940F40020354948610846406900F4B2
:102F10000020019000BF00BF00BF0846406940F498
:102F2000800048610846406900F48000019000BFBD
:102F300000BF00BF0846406940F480204861084651
:102F4000406900F48020019000BF00BF00BF084628
:102F5000406940F4003048610846406900F40030A0
:102F6000019000BF00BF00224FF480411C48FDF7D4
:102F700087FB002244F20A011A48FDF781FB4FF457
:102F8000804002900120039000200490059002A947
:102F90001348FDF795FA44F20A00029001200390CD
:102FA00000200490059002A90E48FDF789FA4FF41D
:102FB000406002904FF4881003900020049002A912
:102FC0000848FDF77DFA002211462820FDF7A6FEED
:102FD0002820FDF793FE07B000BD0000001002405E
:102FE000000800480004004810B512481249086063
:102FF000124848600021104881600121C160002111
:10300000016141618161C1610162FDF7AFFB08B1FE
:10301000FDF729FA00210848FDF73EFB08B1FDF74E
:1030200022FA00210448FDF76CFB08B1FDF71BFAFA
:1030300010BD000000540040600100200E09002077
:1030400000B599B000201590169017901890129026
:10305000139014901C210BA8FDF77DF92C216846D4
:10306000FDF779F92E482F490860002048600021BB
:103070002C48816040F60F61C1600021016141610F
:103080008161FEF78BFF08B1FDF7EDF94FF4805039
:10309000159015A92348FFF73BF808B1FDF7E3F9B0
:1030A0002048FFF76CFA08B1FDF7DDF90020129017
:1030B0001390149012A91B48FEF716FF08B1FDF7F4
:1030C000D2F960200B9000200C900D900E900F9084
:1030D0001090119000220BA91248FFF798F908B13F
:1030E000FDF7C1F900200090019002900390049038
:1030F0004FF4005005900020069007904FF00070AC
:103100000890002009900A9069460648FEF792FE52
:1031100008B1FDF7A8F90348FFF74AF919B000BD57
:10312000002C0140B401002000B587B000200390BE
:103130000490059006900090019002904FF080401E
:103140001349086041F61F40486000211048816023
:103150003121C160002101618161FEF71FFF08B1CB
:10316000FDF781F94FF48050039003A90848FEF75A
:10317000CFFF08B1FDF777F9002000900290694673
:103180000348FEF7B1FE08B1FDF76DF907B000BDC9
:103190000002002000BFFEE700BFFEE710B52DEDE6
:1031A000088B1C48006801F059FE41EC1B0B1A48C3
:1031B00090ED000B53EC102B51EC1B0B01F05AFC63
:1031C00041EC190B154890ED000A1548D0ED000AA6
:1031D00030EE200A10EE101A084601F03FFE41ECD6
:1031E0001B0B104890ED000B53EC102B51EC1B0BFC
:1031F00001F040FC41EC1A0B53EC192B01F0ACF937
:1032000041EC180B01F0F0FB07490860BDEC088B9E
:1032100010BD00005C000020C80000205400002009
:10322000B0000020B8000020F0000020704700002F
:1032300010B52DED048B6A480068404201F003FC94
:1032400041EC190B674890ED000B53EC102B51EC3F
:10325000190B01F019FD41EC180B01F04BF9624913
:103260000860084690ED000ADFED600AB4EEE00A5F
:10327000F1EE10FA03DD9FED5D0A80ED000A5A4879
:1032800090ED000ADFED5A0AB4EEE00AF1EE10FA12
:1032900003D29FED570A80ED000A564890ED000AD0
:1032A000F3EE090AB4EEE00AF1EE10FA32DB52480E
:1032B00090ED000AF7EE000AB4EE600AF1EE10FAA3
:1032C00028D1012202214D48FDF7DAF900224FF4FE
:1032D00080414A48FDF7D4F900204949096848630C
:1032E0004FF47A60FDF7C2F8012291034348FDF7DD
:1032F000C7F9AA204249096848639FED420A42483B
:1033000080ED000A7D20FDF7B1F89FED3E0A3A48B6
:1033100080ED000A374890ED000AFBEE090AB4EE92
:10332000E00AF1EE10FA0BD8334890ED000AB5EE42
:10333000C00AF1EE10FA03D1B7EE000A80ED000AE0
:103340002C4890ED000AF3EE040AB4EEE00AF1EE28
:1033500010FA08DA90ED000AFBEE040AB4EEE00A77
:10336000F1EE10FA09D8002202212448FDF788F96D
:10337000B4202349096848632EE0012202211F4836
:10338000FDF77EF9184890ED000AB5EEC00AF1EE9F
:1033900010FA10DB00224FF480411848FDF770F955
:1033A000114890ED000ABCEEC00A10EE100A144954
:1033B0000968486310E0012291031048FDF760F9A5
:1033C000094890ED000AB1EE400ABCEEC00A10EECA
:1033D000100A0B4909684863BDEC048B10BD00005E
:1033E000F000002018000020F400002000007F43BF
:1033F00000007FC354000020AC00002000040048FF
:10340000B401002000000000F80000207047000018
:1034100010B52DED0A8B4B48006801F014FB41EC10
:103420001A0B9FED490B53EC102B01F023FB41ECE1
:10343000190B01F05FF808EE100A002041490860FE
:10344000434890ED000ADFED430A20EE200A80EDAC
:10345000000A90ED000ADFED400A08EE200A3F481E
:1034600080ED000A90ED000A394880ED000A3C48E2
:1034700090ED000A3948D0ED000A30EE200A3848B5
:1034800080ED000A90ED000ADFED360AB4EEE00AA6
:10349000F1EE10FA02D29FED330A0FE0304890EDC2
:1034A000000ADFED310AB4EEE00AF1EE10FA02DDB7
:1034B0009FED2D0A02E02A4890ED000A284880ED91
:1034C000000A2648006801F0C9FC41EC1C0B2748A3
:1034D00090ED000B53EC102B51EC1C0B01F0C8FBD2
:1034E00041EC1B0B224890ED000B53EC102B51ECE0
:1034F0001B0B01F0BFFA41EC190B1948006801F0F1
:10350000ADFC41EC1C0B194890ED000B53EC102B5B
:1035100051EC1C0B01F0ACFB41EC1B0B154890ED82
:10352000000B53EC102B51EC1B0B01F0A3FA41ECF8
:103530001A0B53EC192B01F00FF80F4A03C2BDEC24
:103540000A8B10BD0C000020000000000000F03FBE
:10355000100000203333333F9A99993E2000002019
:103560001400002000E05DC500E05D45E80000209B
:10357000D0000020D80000201800002010B5FDF772
:1035800057FB10BD00B59FB0282115A8FCF7E3FE3E
:10359000142110A8FCF7DFFE3C2101A8FCF7DBFE9C
:1035A000032015904FF480301690002017900120D2
:1035B000199010201A9002201C90C1031D914FF405
:1035C000E0111E9115A8FDF705FF08B1FCF74BFFB0
:1035D0000F20109002201190002012904FF4806074
:1035E000139000201490022110A8FDF75BFD08B194
:1035F000FCF739FF4FF481500190002008900D90A6
:1036000001A8FDF7DDFB08B1FCF72DFF1FB000BDE1
:103610000348006840F470000149086070470000EA
:1036200088ED00E07CB52648FEF7FBFD00F0DEFEED
:1036300024492548FFF704FC22492348FFF72EFCC4
:103640002048B0F904001F49B1F902101D4ECDE920
:103650000010B6F90440B6F90250B6F90030B6F9D8
:103660002420B6F92210B6F92000184ED6ED002A13
:10367000174E367800EE106AB8EE402A154ED6ED99
:10368000001A154E96ED001A144ED6ED000A144E8F
:1036900096ED000A00F0F4FDFFF780FDFFF7C8FD8E
:1036A00010480068401C0F49086008460068082858
:1036B00004DBFFF7ADFE00200A4908607CBD000076
:1036C00000020020200100206001002038000020BE
:1036D000300000202C0000202800002024000020C2
:1036E00034000020FC00002010B502682A4B9842EC
:1036F0000BD0B0F1804F08D0284B984205D0284B12
:10370000984202D0274B984203D122F070024B68B6
:103710001A43214B984214D0B0F1804F11D01F4B67
:1037200098420ED01E4B98420BD01E4B984208D0A8
:103730001D4B984205D01D4B984202D01C4B98421D
:1037400003D122F44072CB681A4322F080034C6903
:1037500043EA040202608B68C3620B6883620E4B0B
:1037600098420BD00F4B984208D00F4B984205D08F
:103770000E4B984202D00E4B984201D10B69036365
:1037800001234361036903F001031BB1036923F0C3
:103790000103036110BD0000002C01400004004043
:1037A0000008004000340140004001400044014056
:1037B0000048014030B501F01F05012404FA05F36B
:1037C000046A9C430462046A01F01F0502FA05F5CD
:1037D0002C43046230BD30B50C46816821F47F4132
:1037E00042EA032525432943816030BD0A468168AA
:1037F00021F0700142F00703194381607047000017
:1038000030B5026A056A25F00105056243688469DE
:10381000204D2C4024F003040D682C4322F00202BA
:103820008D682A431C4DA84200D10FE01B4DA842D1
:1038300000D10BE01A4DA84200D107E0194DA84273
:1038400000D103E0184DA84206D100BF22F00802C3
:10385000CD682A4322F004020F4DA8420BD00F4D31
:10386000A84208D00E4DA84205D00E4DA84202D065
:103870000D4DA84207D123F4807323F400734D69E2
:103880002B438D692B43436084614D68456302621D
:1038900030BD00008FFFFEFF002C014000340140CE
:1038A00000400140004401400048014030B5026A38
:1038B000056A25F01005056243688469224D2C4095
:1038C00024F440740D6844EA052422F020028D6837
:1038D00042EA05121D4DA84200D10FE01C4DA8423E
:1038E00000D10BE01B4DA84200D100BF1A4DA842E9
:1038F00000D100BF194DA84207D106E022F0800296
:10390000CD6842EA051222F04002104DA8420BD0C9
:103910000F4DA84208D00F4DA84205D00E4DA84229
:1039200002D00E4DA84209D123F4806323F4006332
:103930004D6943EA85038D6943EA850343608461E9
:103940004D688563026230BDFF8FFFFE002C014091
:103950000034014000400140004401400048014063
:1039600030B5026A056A25F4807505624368C4694A
:10397000224D2C4024F003040D682C4322F40072E5
:103980008D6842EA05221E4DA84200D10FE01D4D70
:10399000A84200D10BE01C4DA84200D100BF1B4D36
:1039A000A84200D100BF1A4DA84207D106E022F478
:1039B0000062CD6842EA052222F48062104DA842DE
:1039C0000BD0104DA84208D00F4DA84205D00F4D86
:1039D000A84202D00E4DA84209D123F4805323F40B
:1039E00000534D6943EA05138D6943EA05134360AB
:1039F000C4614D68C563026230BD00008FFFFEFFE9
:103A0000002C0140003401400040014000440140CE
:103A10000048014030B5036A056A25F48055056207
:103A20004468C269124D2A4022F440720D6842EA8D
:103A3000052223F400538D6843EA05330D4DA84257
:103A40000BD00D4DA84208D00C4DA84205D00C4D0E
:103A5000A84202D00B4DA84204D124F480444D6901
:103A600044EA85144460C2614D680564036230BD58
:103A7000FF8FFFFE002C0140003401400040014058
:103A8000004401400048014030B5026A056A25F44F
:103A9000803505624368446D114D2C400D682C4300
:103AA00022F400320D8942EA05420E4DA8420BD0A5
:103AB0000D4DA84208D00D4DA84205D00C4DA8428E
:103AC00002D00C4DA84204D123F480334D6943EA5F
:103AD0000523436044654D688565026230BD000082
:103AE0008FFFFEFF002C01400034014000400140E8
:103AF000004401400048014030B5026A056A25F4DF
:103B0000801505624368446D114D2C400D6844EAF0
:103B1000052422F400120D8942EA05520D4DA842F7
:103B20000BD00D4DA84208D00C4DA84205D00C4D2D
:103B3000A84202D00B4DA84204D123F480234D6942
:103B400043EA8523436044654D68C565026230BD24
:103B5000FF8FFFFE002C0140003401400040014077
:103B6000004401400048014030B50B461446026A4B
:103B7000056A25F001050562816921F0F00141EA3D
:103B8000041122F00A021A438161026230BD30B58D
:103B90000B461446026A056A25F010050562816924
:103BA00021F4704141EA043122F0A00242EA0312FA
:103BB0008161026230BD00BFFEE700000C4890ED5D
:103BC000001AF7EE001A71EEC11A0A4890ED001AB9
:103BD000094890ED002A00EE821A21EE811A04486D
:103BE000D0ED001A01EE801A024880ED001A7047ED
:103BF00038000020580000203400002003B4019851
:103C00004100009850EAC12018BF04204A0D18BF97
:103C100040F0010040F2FF72B2EB515F08BF40F08C
:103C20000200012808BF052002B070470248006862
:103C3000C0F30220704700000CED00E010B5002832
:103C400004DB0A07130E054A135406E00A07140E94
:103C5000034A00F00F031B1FD45410BD00E400E022
:103C600018ED00E00000000070B59B482DED020B40
:103C70002DED068B079D25F00044A04218DC9748E7
:103C8000844202DC0AD1069840B19DED060BBDECE2
:103C9000068B02B0BDE8704000F0CEBA002DCCBF5C
:103CA0009FED8F0B9FED900BBDEC068B02B070BDAE
:103CB0008F48A04215DD8F48A042D8BF4FF0FF3497
:103CC00058DD9DED060B51EC100BFFF797FF042814
:103CD00008BF00F0C5FA9DED060BBDEC068B02B0E7
:103CE00070BD9DED060B51EC100B00F0B5FBCDE95E
:103CF000060181489FED828BA0423CDD8248A042B4
:103D00001FDD00249FED82AB9DED060B53EC1A2BBB
:103D100051EC100B00F020FC9DED060B41EC190B53
:103D200053EC1A2B51EC100B00F0A4FE53EC182BA3
:103D300000F0AAFF53EC192B00F0C2FCCDE90601FC
:103D400049E09DED060B012453EC182B51EC100BB0
:103D500000F002FC9DED060B41EC190B53EC182B07
:103D600051EC100B00F090FF53EC192B00F0A8FC65
:103D7000CDE906012FE06848A0421FDD02249FED37
:103D8000689B9DED060B53EC192B51EC100B00F0CA
:103D900071FE53EC182B00F0DFFB9DED060B41ECA0
:103DA000180B53EC192B51EC100B00F06DFF53EC7A
:103DB000182B00F085FCCDE906010CE09DED060B0B
:103DC000032453EC102B9FED580B51EC100B00F01B
:103DD00077FCCDE906019DED060B53EC102B51EC61
:103DE000100B00F047FE41EC180B53EC182B00F0C1
:103DF00041FE41EC190B4E480621B0EE490AF0EEA7
:103E0000690A784400F09CF953EC182B51EC100B24
:103E100000F030FE41EC180B4648B0EE490AF0EED7
:103E2000690A0521784400F08BF953EC192B51EC09
:103E3000100B00F01FFE41EC100B51EC180B53EC73
:103E4000102B002C0EDA00F087FB9DED061B53ECC7
:103E5000112B00F00FFE9DED061B53EC112B00F013
:103E600007FF35E000F078FB9DED061B53EC112BAE
:103E700000F000FE41EC100B2F48784400EBC4002A
:103E800090ED001B51EC100B53EC112B00F0FCFEDD
:103E90009DED061B53EC112B00F0F6FE41EC100BD0
:103EA0002648784400EBC40090ED001B51EC100B49
:103EB00053EC112B00F0DCFE41EC100B002DA2BFE7
:103EC000BDEC068B02B070BD51EC100B00F006FB90
:103ED00041EC100B01E70000000010440000F07FEF
:103EE000182D4454FB21F93F182D4454FB21F9BFF0
:103EF0000000DC3F0000203E0000F33F0000000017
:103F0000000000000000F03F0000E63F000000005D
:103F1000000000000000004000800340000000009E
:103F2000000000000000F83F000000000000F0BFAB
:103F3000F2110000A811000032110000EA10000088
:103F400070B56F4E2DED040B2DED048B82B0DDF8B6
:103F500024C0DDE907235C422CF000411C4341EA08
:103F6000D474069D22F00040B44205D86C422C4324
:103F700040EAD474B4420BD99DED081B9DED060BAD
:103F800002B0BDEC048B04B0BDE8704000F05EB937
:103F9000ACF14054A4F17F641C430BD0022404EA2A
:103FA000AC7444EAD27405439FED578B9FED582BB8
:103FB00007D015E09DED060B51EC100B00F00EFA4A
:103FC00042E0002C11BF012C9DED060B02B0BDECB0
:103FD000048B04BF04B070BD022C38D0032C3BD03E
:103FE0000B439FED4D1B9FED4E0B0AD0B14218D1F4
:103FF000B04209D121F0804120F080400991079022
:104000000FE0002A15DA10E0474B7B44002C08BF74
:1040100093ED000B0DD0012C10D0022C17D0032CE7
:104020001AD0B0421DD1002A03DAB0EE410AF0EEF8
:10403000610A02B0BDEC048B04B070BD93ED000BBF
:1040400051EC100B00F04AFA41EC100BF1E7B0EE26
:10405000480AF0EE680AECE7B0EE420AF0EE620AB7
:10406000E7E7401A00159FED329B3C28C8BF8DED55
:10407000000B17DCBCF1000FBCBF10F13C0F8DED45
:10408000009B0FDB9DED080B53EC102B9DED060BF9
:1040900051EC100B00F014FB00F0DEF900F09EF97B
:1040A000CDE90001B4B1012C10D0022C9FED220B00
:1040B00053EC102B9DED000B51EC100B19D000F0C0
:1040C000E3FD53EC182B00F0DFFDBDE7019880F015
:1040D000004001909DED000B53EC192B51EC100B9F
:1040E00000F046FC04BF0220FCF764F99DED000BD4
:1040F0009FE700F0C9FD53EC182B00F0B9FDA3E7D2
:104100000000F07F00000000182D4454FB210940FE
:10411000182D4454FB2109C0182D4454FB21F9BF2C
:10412000182D4454FB21F93F1A1000000000000034
:104130000000000000000000075C143326A6A13C2C
:1041400070B504462DED028B4D1E00EBC500B0EEA0
:10415000408AF0EE608A90ED000B35F0060017D033
:1041600053EC182B51EC100B00F084FC41EC100BBD
:104170006D1E04EBC50090ED001B51EC100B53ECD1
:10418000112B00F0E9F941EC100B35F00600E7D1F6
:10419000022D36D0042D1CD0062D1CBFBDEC028B89
:1041A00070BD53EC182B51EC100B00F063FC94ED38
:1041B0000A1B53EC112B00F0CFF953EC182B00F035
:1041C00059FC94ED081B53EC112B00F0C5F941ECA0
:1041D000100B53EC182B51EC100B00F04BFC94ED32
:1041E000061B53EC112B00F0B7F953EC182B00F021
:1041F00041FC94ED040B53EC102B00F0ADF941ECB5
:10420000100B53EC182B51EC100B00F033FC94ED19
:10421000021B53EC112B00F09FF953EC182B00F00C
:1042200029FC94ED001B53EC112B00F095F9BDEC2B
:10423000028B41EC100B70BD10B553EC102B51EC00
:10424000100B00F089F941EC100B10BD10B553ECC8
:10425000112B51EC100B00F07FF941EC100B10BD4D
:104260009FED050B10B553EC102B51EC100B00F02B
:1042700001FC41EC100B10BD00000000000000101C
:104280002DE9F0472DED108B07460C4615461E46CE
:10429000B0EE40EAF0EE60EAB0EE41FAF0EE61FA1C
:1042A000DDE91889284600F0CEFB41EC1C0B2046C6
:1042B00000F0C9FB41EC1D0BB0EE4C1AF0EE6C1A8D
:1042C000B0EE4D0AF0EE6D0AFFF73AFEB0EE40BADE
:1042D000F0EE60BA51EC1B0B00F000F941EC1A0B48
:1042E0009FED370B53EC102B00F0C4FB41EC190B86
:1042F00000F000F908EE100A7042832190FBF1F003
:1043000000EE100AB8EEC00A2F4880ED000AD0ED8A
:10431000000AB0EE480AFEF7FDFBC9F10000832158
:1043200090FBF1F000EE100AB8EEC00A274880EDCD
:10433000000A284600F087FB41EC1C0B384600F0D1
:1043400082FB41EC1D0BB0EE4C1AF0EE6C1AB0EE95
:104350004D0AF0EE6D0AFFF7F3FDB0EE40BAF0EE55
:1043600060BA51EC1B0B00F0B9F841EC1A0B9FED51
:10437000140B53EC102B00F07DFB41EC190B00F0FB
:10438000B9F808EE900AC8F1000000F05CFB41ECBF
:104390001A0B9FED0F0B53EC102B00F091F941EC31
:1043A000190B00F0A7F80C4908600846D0ED000A88
:1043B000B0EE680AFFF702FCBDEC108BBDE8F08799
:1043C000E5BF631ADCA54C40A0000020A800002037
:1043D0000000000000606040A400002010B541EC27
:1043E000100BFFF741FC51EC100B10BD1548006895
:1043F00015490860002013490860134800681349F4
:104400000860134890ED000AB5EEC00AF1EE10FA0C
:1044100004D208460068404208600BE00C4890ED6A
:10442000000AB5EEC00AF1EE10FA03DD0748006895
:1044300006490860074800680449096808440549B6
:1044400008607047000000200400002008000020E1
:10445000F40000200C00002082B0CDE9000121F022
:10446000004001909DED000B02B051EC100B704725
:10447000FCF7EAFBFFF786F8FEF73AFDFEF7B4FD1E
:10448000FEF7DEFDFEF750FE1048FEF787FC1048F1
:10449000FDF7F0FD00210F48FEF7AAF80122910375
:1044A0000D48FCF7EDF8002202210B48FCF7E8F874
:1044B0000AE000224FF480410748FCF7E1F80122AE
:1044C00002210548FCF7DCF8F3E70000600100205A
:1044D00000020020B40100200004004881F00041E7
:1044E000704780F00040704721F00041704720F095
:1044F0000040704721F00042A2F16052B2F5801FE7
:1045000001F0004328BFD2F17F6C0BD95FEA001C99
:1045100043EAC20242EB507018BF704728BF20F038
:1045200001007047B2F5801FBCBF184670474FEAC4
:10453000410C1CF5001F02D2084600F005BD70B505
:1045400000F042FB00000089FFF7F6BF4FF000408B
:10455000A0F580007047000010B591EA030F48BF36
:1045600083F0004300F19883841A71EB030C05D2A9
:10457000121943EB0C03001B61EB0C01DFF824E183
:104580004FEA1154A4EB135C1EEA430F18BF9EEAD6
:10459000445F73D023EA0E03DCF1200E21EA0451BC
:1045A00043F4801332D322FA0CFE10EB0E0023FAF0
:1045B0000CFE41EB0E01CCF1200E03FA0EFE10EBC7
:1045C0000E0051F10001B1F5801FCCF1200E32D266
:1045D00001EB045112FA0EF2BDE8104058BF7047CB
:1045E000401C38BF5FEA420218BF7047002814BF62
:1045F00020F0010041F100014FEA410313F5001FD3
:1046000038BF7047A1F1C04100F02CBB012A43EB39
:104610000302ACF1200CDCF11F0E32BF4FF0000E94
:1046200023FA0CF310EB030041EB0451B4EB115FE0
:10463000D0D0A1EB045101F5801149085FEA3000A8
:1046400001EB04510ED350F1000038BF12FA0EFEF8
:1046500008D1BDE81040C9E7401C38BF5FEA4202FC
:10466000CAD1C3E7BDE810404FEA410313F5001F6C
:1046700038BF7047A1F1C04100F0F4BA9EEA445F30
:1046800008D011EA5E0FBDE8104004BF01F0004100
:1046900000207047BDE8104070B500F095FA00BFEB
:1046A00064FBBE3E0000E0FF491058BFC1F140412D
:1046B0005B1058BFC3F140438B42EFF3008070475B
:1046C0002DE9C04130B4DFF8A0C23CEA111418BF94
:1046D0003CEA131400F0EC8081EA03051CEA111493
:1046E00044EAD57418BF1CEA131500F0C780A4EB88
:1046F00005044FF0004545EAC12145EAC32341EADC
:10470000505143EA525304F17F74994204F5003446
:104710004FEAC0204FEAC22208BF904200F09C80BE
:104720004FEA13650FF24016765D4FEA134506FB1C
:1047300005F7C7F1807706FB07F74FEAD737A7FBE6
:1047400003687642C8F58038A7FB06CE38BFA8F1CB
:10475000010807FB08E64FF0000EA6FB028CE6FB03
:1047600003CEDCF1000CCEF1004E38BFAEF1010EED
:10477000A6FB0C584FF000074FF00005E6FB0E8734
:10478000A1FB08C6A0FB07CE16EB0E0645F10005FF
:10479000E1FB076515F1E04E7EBFA4F580345FEACA
:1047A00046066D4116F1800745F100054FEA1727CF
:1047B0004FEA066647EA0567A6F1DE46B6F1805F76
:1047C0004FEA15251FD9384624F0010C05EBC471BA
:1047D000BCF1FE6F01EB0C1102D8F0BCBDE800810A
:1047E00024425CBF01F5801E9EEAC47F02D4F0BC67
:1047F000BDE80081244238D4F0BCA1F1C041BDE83D
:10480000004100F02FBA4FEAD22242EA43524FEA67
:10481000D323A7FB02864FEAD02040EA415007FB92
:1048200003661EEA0E0F4FEAD12105FB026658BF50
:10483000A6EB0056B6EB00564FEA520E4EEAC37E88
:1048400018EB0E0E56EB530EBDD518EB02085E4169
:104850007F1C55F10005B6E74FF480154FF00007B7
:104860004FF000064FF00008ADE7F0BC4FF000003D
:1048700001F1C04101F00041BDE8008111EA0C1FC7
:104880000CEA131500D00CE013EA0C1F00F0258091
:104890004FF00000F0BC81EA030101F00041BDE8E7
:1048A0000081F0BCBDE8004181EA030100F0DAB903
:1048B000F0BCBDE8004170B500F086F9097EFC3E11
:1048C00000F007B881EA03014FF0000001F0004159
:1048D000704781EA030100F0C5B9F0BCBDE80041B2
:1048E0004FF0000021497047FFFDFBF9F7F5F4F2A6
:1048F000F0EEEDEBE9E8E6E4E3E1E0DEDDDBDAD87B
:10490000D7D5D4D3D1D0CFCDCCCBCAC8C7C6C5C4D8
:10491000C2C1C0BFBEBDBCBBBAB9B8B7B6B5B4B3EF
:10492000B2B1B0AFAEADACABAAA9A8A8A7A6A5A4DA
:10493000A3A3A2A1A09F9F9E9D9C9C9B9A9999989E
:104940009797969595949393929191908F8F8E8E41
:104950008D8C8C8B8B8A89898888878786858584CE
:1049600084838382828181800000FF070000F87FBA
:1049700051EA030C17D41CF5801F58BFBCF5801FEB
:1049800000F10680994218BF704708BF90427047F7
:1049900007D711F5801F58BF13F5801F19D499420E
:1049A0007047894270471CF5801F08D5BCF5801FF1
:1049B000F7D58B4218BF704708BF824270474FF44B
:1049C000001C1CEB410F38BF1CEB430F01D28B4284
:1049D000704770B500F0F8F8922449004FF000518C
:1049E0004FF08053FFF760BE4FEA41034FEA535345
:1049F000A3F58063D3F11E03C8BFD3F1210C0CDDF6
:104A00004FF0004242EAC12242EA505232FA03FC1D
:104A10008CEAE17CACEBE1707047102BC4BF002046
:104A2000704703F5787CBCF1FF3F04D06FF0004283
:104A300082EA2100704770B500F0C6F849922480E0
:104A400000207047F2E710F0004248BF4042B0FA41
:104A500080F310FA03F10AD0C3F11D0303F580635C
:104A60004FEA415002EB035202EBD12170474FF065
:104A700000007047DFF848C170B51CEA111E1EBF68
:104A80001CEA13159EEA0C0F95EA0C0F00F06F80DC
:104A900081EA030423EA4C134EEAD47E21EA4C1146
:104AA00041F4801143F48013AE44A1FB024CA0FBFF
:104AB0000365AEF17F7E361955EB0C05A1FB034C67
:104AC0004CF10003A0FB021C16EB0C06654153F1F0
:104AD0000003094218BF46F0010613F4007F0BD112
:104AE0004FEA03314FEA0530340341EA155140EAF9
:104AF00016506FF003020AE04FEAC3214FEAC520C7
:104B0000F40241EA555140EA56506FF0020202EBBE
:104B10002E4201EB025585EACE710AD05FEA440CC1
:104B200018BF24F0004450F1000041F1000120EAD8
:104B3000D47040F2FE7C624500D270BDA84214BF22
:104B40004FF080444FF04044002E08BF0024BEF1D7
:104B5000806FA8BFA1F1C041BDE8704080F28280A3
:104B60004FF0000001F1C04101F0004170479EEAA2
:104B70000C0F0CEA131518BF95EA0C0F06D04FF076
:104B8000000081EA030E0EF0004170BD00F01CF839
:104B90008900013E00F007B800F009B84FEA430C65
:104BA0005FEA5C5C08D081EA030100F05BB84FEA81
:104BB000410C5FEA5C5CF6D14FF0000001497047A0
:104BC0000000FF070000F87F0EF1020E2EF0030E2A
:104BD0005EF8046B364205D4012A43EB030515F554
:104BE000001F12D8012841EB010C1CF5001F0CD846
:104BF0000ED14FEAD17C15F5001F0CEB4C0C0CF1DB
:104C0000020C08BF4CEBD37C04E04FF0080C01E031
:104C10004FEAD37C0CEB4C0526FA05F606F00706A6
:104C2000B6F1040C06D20EEB860CBDE870404CF0D9
:104C3000010C6047DFE80CF0090B02024FF0004165
:104C40004FF00000A1F5002170BD19461046012863
:104C500051EB010418BFD4F5001484BF002001F00B
:104C6000004170BD0808A0F500114FEA31017047FE
:104C700091EA030F10B581F000413FF575AC83F068
:104C8000004300F009B8000010B591EA030F48BFD7
:104C900083F000433FF568AC841A71EB030C07D234
:104CA00012198CF0004C43EB0C03001B61EB0C0160
:104CB000DFF8A4E14FEA1154A4EB135C1EEA430FA2
:104CC00018BF9EEA445F00F0B08023EA6E035242B0
:104CD00021EA0451C3EB6E0338BF5B1EDCF1200EEA
:104CE00025D322FA0CFE10EB0E0043FA0CFE41EB2A
:104CF0000E01CCF1200E03FA0EFE10EB0E0051F166
:104D00000001CCF1200E29D412FA0EF201EB04516D
:104D1000BDE8104058BF7047401C1CBFB2F1004FA7
:104D2000704700280CBF491C20F00100704712EBAF
:104D3000020E43EB030218BF4FF0010E4EEA42028F
:104D4000ACF1200CDCF11E0E54D943FA0CFE10EB32
:104D50000E0051F1FF31CCF11E0ED5D50EF1010E32
:104D600012FA0EFE404141EB010101EB445C5FEAA7
:104D70005C5C10D910EBDE7001EB045138BFBEF162
:104D8000004FBDE8104018BF704700280CBF491CF9
:104D900020F00100704730D24FEAD42C11F50011F9
:104DA00024F400641BD0B1FA81F20B3AA41AA41EB9
:104DB000D2F12003914030FA03F31943904001EB04
:104DC000CC71002C01EB0451BDE81040A8BF704726
:104DD00001F1C0414FF0000001F000417047B0FA0E
:104DE00080F310FA03F100D110BDE41A173C480516
:104DF000C90AE4E701EB045110BD491001EB04516D
:104E0000BDE810404FEA300002E04FF0000170476B
:104E10004A0008BF0042F8D0B2F5001F28BF704713
:104E200001F000414FF0000070479EEA445F07D058
:104E300011EA5E0FBDE8104004BF0021002070475A
:104E4000BDE8104070B5FFF7BFFE00BF40DFF63E83
:104E500083F00041104670470000E0FF43004FEA36
:104E6000D30C4FEA3C0C43401FBF40070CF160518C
:104E700013F0FE4F70471CF0006F03D100200CF0C0
:104E8000004170470CF0004343EA507010B540EA0F
:104E9000CC0000F00EF800BF000000924FEA0001C5
:104EA000FFF7E0BE4FF000414FF00000A1F50021F8
:104EB00070470EF1020E2EF0030E5EF8044B2442F2
:104EC00004D44FEA4102B2F17F4F11D84FEA4003B8
:104ED000B3F17F4F0CD80ED14FEAD07CB2F17F4FA7
:104EE0000CEB4C0C0CF1020C08BF4CEBD17C04E039
:104EF0004FF0080C01E04FEAD17C0CEB4C0324FA94
:104F000003F404F00704B4F1040C06D20EEB840C95
:104F1000BDE810404CF0010C6047DFE80CF00708DA
:104F200002024FF00040A0F5800010BD084642008C
:104F300018BFD2F1807288BF00F0004010BD4FF062
:104F40004070E1EE100A7047FF2141EAD050C005E1
:104F5000704702030405060708090A0B0C0D0E0F23
:104F600010100102030405060708090A0B0C0D0EB8
:104F70000F100000000000000000010203040607FB
:104F80000809000000000102030400000000000006
:104F90004FBB610567ACDD3F182D4454FB21E93F51
:104FA0009BF681D20B73EF3F182D4454FB21F93F40
:104FB000E2652F227F2B7A3C075C143326A6813CC6
:104FC000BDCBF07A8807703C075C143326A6913C71
:104FD000C4EB98999999C9BF711623FEC671BCBFDD
:104FE0006D9A74AFF2B0B3BF9AFDDE522DDEADBF45
:104FF0002F6C6A2C44B4A2BF0D5555555555D53F5D
:10500000FF8300922449C23F6E204CC5CD45B73F77
:10501000513DD0A0660DB13FEB0D76244B7BA93FEF
:1050200011DA22E33AAD903F0000000000000000DA
:10503000505000080000002010010000C4010008CA
:105040006051000810010020A0070000E0010008E6
:105050000000000000000000000000000000000050
:105060000000000000000000000000000000000040
:10507000000000006F12833AA69B443B0000003FF3
:10508000010000000AD7A33BCDCC4C3D000000003E
:105090000000000000000000000000000000000010
:1050A0000000000000000000000000000000000000
:1050B0000000803F00000000000000000000803F72
:1050C00000000000000000000000000000000000E0
:1050D00000000000000000000000000000000000D0
:1050E00000000000000000000000000000000000C0
:1050F00000000000000000000000000000000000B0
:105100000000A0C0000000000000000000003C40C3
:105110000000000000000000D7A3703D0AD7E33F65
:1051200000000000000008403BDF4F8D976EB23F4B
:10513000000000000000000000000000000014C09B
:10514000000000000000000000000000000000005F
:1051500000000000100000000100000000127A00B2
:040000050800018965
:00000001FF
